{
  "_format": "hh-sol-artifact-1",
  "contractName": "BestAnimeContract",
  "sourceName": "contracts/BestAnime.sol",
  "abi": [
    {
      "inputs": [],
      "stateMutability": "nonpayable",
      "type": "constructor"
    },
    {
      "inputs": [],
      "name": "TheBestAnime",
      "outputs": [
        {
          "internalType": "string",
          "name": "",
          "type": "string"
        }
      ],
      "stateMutability": "view",
      "type": "function"
    },
    {
      "inputs": [
        {
          "internalType": "string",
          "name": "_bestanime",
          "type": "string"
        }
      ],
      "name": "setBestAnime",
      "outputs": [],
      "stateMutability": "nonpayable",
      "type": "function"
    }
  ],
  "bytecode": "0x608060405234801561001057600080fd5b50336000806101000a81548173ffffffffffffffffffffffffffffffffffffffff021916908373ffffffffffffffffffffffffffffffffffffffff16021790555061057e806100606000396000f3fe608060405234801561001057600080fd5b50600436106100365760003560e01c8063076654b21461003b5780631ad7535714610059575b600080fd5b610043610075565b6040516100509190610357565b60405180910390f35b610073600480360381019061006e91906102ba565b610107565b005b6060600180546100849061044d565b80601f01602080910402602001604051908101604052809291908181526020018280546100b09061044d565b80156100fd5780601f106100d2576101008083540402835291602001916100fd565b820191906000526020600020905b8154815290600101906020018083116100e057829003601f168201915b5050505050905090565b60008054906101000a900473ffffffffffffffffffffffffffffffffffffffff1673ffffffffffffffffffffffffffffffffffffffff163373ffffffffffffffffffffffffffffffffffffffff1614610195576040517f08c379a000000000000000000000000000000000000000000000000000000000815260040161018c90610379565b60405180910390fd5b80600190805190602001906101ab9291906101af565b5050565b8280546101bb9061044d565b90600052602060002090601f0160209004810192826101dd5760008555610224565b82601f106101f657805160ff1916838001178555610224565b82800160010185558215610224579182015b82811115610223578251825591602001919060010190610208565b5b5090506102319190610235565b5090565b5b8082111561024e576000816000905550600101610236565b5090565b6000610265610260846103be565b610399565b90508281526020810184848401111561027d57600080fd5b61028884828561040b565b509392505050565b600082601f8301126102a157600080fd5b81356102b1848260208601610252565b91505092915050565b6000602082840312156102cc57600080fd5b600082013567ffffffffffffffff8111156102e657600080fd5b6102f284828501610290565b91505092915050565b6000610306826103ef565b61031081856103fa565b935061032081856020860161041a565b6103298161050e565b840191505092915050565b60006103416010836103fa565b915061034c8261051f565b602082019050919050565b6000602082019050818103600083015261037181846102fb565b905092915050565b6000602082019050818103600083015261039281610334565b9050919050565b60006103a36103b4565b90506103af828261047f565b919050565b6000604051905090565b600067ffffffffffffffff8211156103d9576103d86104df565b5b6103e28261050e565b9050602081019050919050565b600081519050919050565b600082825260208201905092915050565b82818337600083830152505050565b60005b8381101561043857808201518184015260208101905061041d565b83811115610447576000848401525b50505050565b6000600282049050600182168061046557607f821691505b60208210811415610479576104786104b0565b5b50919050565b6104888261050e565b810181811067ffffffffffffffff821117156104a7576104a66104df565b5b80604052505050565b7f4e487b7100000000000000000000000000000000000000000000000000000000600052602260045260246000fd5b7f4e487b7100000000000000000000000000000000000000000000000000000000600052604160045260246000fd5b6000601f19601f8301169050919050565b7f4e6f7420546865204f776e6572203a290000000000000000000000000000000060008201525056fea26469706673582212208dd3c245396e9695014c9b968bd327cfa0ec6bb518f7f2741bf68f48740c1b5864736f6c63430008040033",
  "linkReferences": {},
  "deployedLinkReferences": {}
}