{
  "_format": "hh-sol-artifact-1",
  "contractName": "BestAnimeContract",
  "sourceName": "contracts/BestAnime.sol",
  "abi": [
    {
      "inputs": [
        {
          "internalType": "string",
          "name": "_initAnime",
          "type": "string"
        }
      ],
      "stateMutability": "nonpayable",
      "type": "constructor"
    },
    {
      "anonymous": false,
      "inputs": [
        {
          "indexed": false,
          "internalType": "string",
          "name": "NewBestAnime",
          "type": "string"
        },
        {
          "indexed": false,
          "internalType": "uint256",
          "name": "NewBuyPrice",
          "type": "uint256"
        },
        {
          "indexed": false,
          "internalType": "address",
          "name": "NewOwner",
          "type": "address"
        }
      ],
      "name": "NewBestAnime",
      "type": "event"
    },
    {
      "stateMutability": "payable",
      "type": "fallback"
    },
    {
      "inputs": [],
      "name": "BestAnime",
      "outputs": [
        {
          "internalType": "string",
          "name": "",
          "type": "string"
        }
      ],
      "stateMutability": "view",
      "type": "function"
    },
    {
      "inputs": [],
      "name": "ContractState",
      "outputs": [
        {
          "internalType": "enum BestAnimeContract.State",
          "name": "",
          "type": "uint8"
        }
      ],
      "stateMutability": "view",
      "type": "function"
    },
    {
      "inputs": [],
      "name": "LastBuyPrice",
      "outputs": [
        {
          "internalType": "uint256",
          "name": "",
          "type": "uint256"
        }
      ],
      "stateMutability": "view",
      "type": "function"
    },
    {
      "inputs": [],
      "name": "OwnerOfBestAnime",
      "outputs": [
        {
          "internalType": "address",
          "name": "",
          "type": "address"
        }
      ],
      "stateMutability": "view",
      "type": "function"
    },
    {
      "inputs": [],
      "name": "OwnerReqStop",
      "outputs": [
        {
          "internalType": "bool",
          "name": "",
          "type": "bool"
        }
      ],
      "stateMutability": "view",
      "type": "function"
    },
    {
      "inputs": [],
      "name": "TheBestAnime",
      "outputs": [
        {
          "internalType": "string",
          "name": "",
          "type": "string"
        },
        {
          "internalType": "uint256",
          "name": "",
          "type": "uint256"
        },
        {
          "internalType": "address",
          "name": "",
          "type": "address"
        }
      ],
      "stateMutability": "view",
      "type": "function"
    },
    {
      "inputs": [],
      "name": "getSCBalance",
      "outputs": [
        {
          "internalType": "uint256",
          "name": "",
          "type": "uint256"
        }
      ],
      "stateMutability": "view",
      "type": "function"
    },
    {
      "inputs": [],
      "name": "requestReadOnly",
      "outputs": [],
      "stateMutability": "nonpayable",
      "type": "function"
    },
    {
      "inputs": [
        {
          "internalType": "string",
          "name": "_bestanime",
          "type": "string"
        }
      ],
      "name": "setBestAnime",
      "outputs": [],
      "stateMutability": "payable",
      "type": "function"
    },
    {
      "inputs": [],
      "name": "transferBalance",
      "outputs": [],
      "stateMutability": "nonpayable",
      "type": "function"
    },
    {
      "stateMutability": "payable",
      "type": "receive"
    }
  ],
  "bytecode": "0x60806040526000600460016101000a81548160ff021916908360018111156200002d576200002c620003a9565b5b02179055503480156200003f57600080fd5b506040516200150f3803806200150f833981810160405281019062000065919062000257565b336000806101000a81548173ffffffffffffffffffffffffffffffffffffffff021916908373ffffffffffffffffffffffffffffffffffffffff16021790555033600260006101000a81548173ffffffffffffffffffffffffffffffffffffffff021916908373ffffffffffffffffffffffffffffffffffffffff1602179055508060019080519060200190620000fe92919062000129565b5060006003819055506000600460006101000a81548160ff021916908315150217905550506200045b565b82805462000137906200033d565b90600052602060002090601f0160209004810192826200015b5760008555620001a7565b82601f106200017657805160ff1916838001178555620001a7565b82800160010185558215620001a7579182015b82811115620001a657825182559160200191906001019062000189565b5b509050620001b69190620001ba565b5090565b5b80821115620001d5576000816000905550600101620001bb565b5090565b6000620001f0620001ea84620002d1565b620002a8565b9050828152602081018484840111156200020f576200020e6200043b565b5b6200021c84828562000307565b509392505050565b600082601f8301126200023c576200023b62000436565b5b81516200024e848260208601620001d9565b91505092915050565b60006020828403121562000270576200026f62000445565b5b600082015167ffffffffffffffff81111562000291576200029062000440565b5b6200029f8482850162000224565b91505092915050565b6000620002b4620002c7565b9050620002c2828262000373565b919050565b6000604051905090565b600067ffffffffffffffff821115620002ef57620002ee62000407565b5b620002fa826200044a565b9050602081019050919050565b60005b83811015620003275780820151818401526020810190506200030a565b8381111562000337576000848401525b50505050565b600060028204905060018216806200035657607f821691505b602082108114156200036d576200036c620003d8565b5b50919050565b6200037e826200044a565b810181811067ffffffffffffffff82111715620003a0576200039f62000407565b5b80604052505050565b7f4e487b7100000000000000000000000000000000000000000000000000000000600052602160045260246000fd5b7f4e487b7100000000000000000000000000000000000000000000000000000000600052602260045260246000fd5b7f4e487b7100000000000000000000000000000000000000000000000000000000600052604160045260246000fd5b600080fd5b600080fd5b600080fd5b600080fd5b6000601f19601f8301169050919050565b6110a4806200046b6000396000f3fe6080604052600436106100955760003560e01c80639c1d9e3e116100595780639c1d9e3e14610154578063acdc80231461017f578063be75ac83146101aa578063eab6627e146101d5578063f2b63c35146102005761009c565b8063076654b21461009e5780631ad75357146100cb57806326585600146100e757806343650b4a1461011257806366adeb8c1461013d5761009c565b3661009c57005b005b3480156100aa57600080fd5b506100b3610217565b6040516100c293929190610c2e565b60405180910390f35b6100e560048036038101906100e091906109f1565b6102db565b005b3480156100f357600080fd5b506100fc6104e6565b6040516101099190610c0c565b60405180910390f35b34801561011e57600080fd5b50610127610574565b6040516101349190610bbb565b60405180910390f35b34801561014957600080fd5b5061015261059a565b005b34801561016057600080fd5b50610169610698565b6040516101769190610bf1565b60405180910390f35b34801561018b57600080fd5b506101946106ab565b6040516101a19190610d2a565b60405180910390f35b3480156101b657600080fd5b506101bf6106b1565b6040516101cc9190610d2a565b60405180910390f35b3480156101e157600080fd5b506101ea6106b9565b6040516101f79190610bd6565b60405180910390f35b34801561020c57600080fd5b506102156106cc565b005b60606000806001600354600260009054906101000a900473ffffffffffffffffffffffffffffffffffffffff1682805461025090610e7b565b80601f016020809104026020016040519081016040528092919081815260200182805461027c90610e7b565b80156102c95780601f1061029e576101008083540402835291602001916102c9565b820191906000526020600020905b8154815290600101906020018083116102ac57829003601f168201915b50505050509250925092509250909192565b60008054906101000a900473ffffffffffffffffffffffffffffffffffffffff1673ffffffffffffffffffffffffffffffffffffffff163373ffffffffffffffffffffffffffffffffffffffff16141561036a576040517f08c379a000000000000000000000000000000000000000000000000000000000815260040161036190610caa565b60405180910390fd5b6000600181111561037e5761037d610ede565b5b600460019054906101000a900460ff1660018111156103a05761039f610ede565b5b146103e0576040517f08c379a00000000000000000000000000000000000000000000000000000000081526004016103d790610cea565b60405180910390fd5b6003543411610424576040517f08c379a000000000000000000000000000000000000000000000000000000000815260040161041b90610cca565b60405180910390fd5b3460038190555033600260006101000a81548173ffffffffffffffffffffffffffffffffffffffff021916908373ffffffffffffffffffffffffffffffffffffffff16021790555080600190805190602001906104829291906108de565b507f8f7b108963d5e2153336044c033a0d2a92b25f6694c86e98d2647f9784198cef6001600354600260009054906101000a900473ffffffffffffffffffffffffffffffffffffffff166040516104db93929190610c6c565b60405180910390a150565b600180546104f390610e7b565b80601f016020809104026020016040519081016040528092919081815260200182805461051f90610e7b565b801561056c5780601f106105415761010080835404028352916020019161056c565b820191906000526020600020905b81548152906001019060200180831161054f57829003601f168201915b505050505081565b600260009054906101000a900473ffffffffffffffffffffffffffffffffffffffff1681565b60008054906101000a900473ffffffffffffffffffffffffffffffffffffffff1673ffffffffffffffffffffffffffffffffffffffff163373ffffffffffffffffffffffffffffffffffffffff1614610628576040517f08c379a000000000000000000000000000000000000000000000000000000000815260040161061f90610d0a565b60405180910390fd5b60008054906101000a900473ffffffffffffffffffffffffffffffffffffffff1673ffffffffffffffffffffffffffffffffffffffff166108fc61066a6106b1565b9081150290604051600060405180830381858888f19350505050158015610695573d6000803e3d6000fd5b50565b600460019054906101000a900460ff1681565b60035481565b600047905090565b600460009054906101000a900460ff1681565b60008054906101000a900473ffffffffffffffffffffffffffffffffffffffff1673ffffffffffffffffffffffffffffffffffffffff163373ffffffffffffffffffffffffffffffffffffffff1614806107735750600260009054906101000a900473ffffffffffffffffffffffffffffffffffffffff1673ffffffffffffffffffffffffffffffffffffffff163373ffffffffffffffffffffffffffffffffffffffff16145b6107b2576040517f08c379a00000000000000000000000000000000000000000000000000000000081526004016107a990610d0a565b60405180910390fd5b600460009054906101000a900460ff1661083e5760008054906101000a900473ffffffffffffffffffffffffffffffffffffffff1673ffffffffffffffffffffffffffffffffffffffff163373ffffffffffffffffffffffffffffffffffffffff161461081e57600080fd5b6001600460006101000a81548160ff0219169083151502179055506108dc565b600260009054906101000a900473ffffffffffffffffffffffffffffffffffffffff1673ffffffffffffffffffffffffffffffffffffffff163373ffffffffffffffffffffffffffffffffffffffff161480156108a75750600460009054906101000a900460ff165b6108b057600080fd5b6001600460016101000a81548160ff021916908360018111156108d6576108d5610ede565b5b02179055505b565b8280546108ea90610e7b565b90600052602060002090601f01602090048101928261090c5760008555610953565b82601f1061092557805160ff1916838001178555610953565b82800160010185558215610953579182015b82811115610952578251825591602001919060010190610937565b5b5090506109609190610964565b5090565b5b8082111561097d576000816000905550600101610965565b5090565b600061099461098f84610d6a565b610d45565b9050828152602081018484840111156109b0576109af610f70565b5b6109bb848285610e39565b509392505050565b600082601f8301126109d8576109d7610f6b565b5b81356109e8848260208601610981565b91505092915050565b600060208284031215610a0757610a06610f7a565b5b600082013567ffffffffffffffff811115610a2557610a24610f75565b5b610a31848285016109c3565b91505092915050565b610a4381610dcc565b82525050565b610a5281610dde565b82525050565b610a6181610e27565b82525050565b6000610a7282610db0565b610a7c8185610dbb565b9350610a8c818560208601610e48565b610a9581610f7f565b840191505092915050565b60008154610aad81610e7b565b610ab78186610dbb565b94506001821660008114610ad25760018114610ae457610b17565b60ff1983168652602086019350610b17565b610aed85610d9b565b60005b83811015610b0f57815481890152600182019150602081019050610af0565b808801955050505b50505092915050565b6000610b2d601383610dbb565b9150610b3882610f90565b602082019050919050565b6000610b50602483610dbb565b9150610b5b82610fb9565b604082019050919050565b6000610b73601883610dbb565b9150610b7e82611008565b602082019050919050565b6000610b96601083610dbb565b9150610ba182611031565b602082019050919050565b610bb581610e1d565b82525050565b6000602082019050610bd06000830184610a3a565b92915050565b6000602082019050610beb6000830184610a49565b92915050565b6000602082019050610c066000830184610a58565b92915050565b60006020820190508181036000830152610c268184610a67565b905092915050565b60006060820190508181036000830152610c488186610a67565b9050610c576020830185610bac565b610c646040830184610a3a565b949350505050565b60006060820190508181036000830152610c868186610aa0565b9050610c956020830185610bac565b610ca26040830184610a3a565b949350505050565b60006020820190508181036000830152610cc381610b20565b9050919050565b60006020820190508181036000830152610ce381610b43565b9050919050565b60006020820190508181036000830152610d0381610b66565b9050919050565b60006020820190508181036000830152610d2381610b89565b9050919050565b6000602082019050610d3f6000830184610bac565b92915050565b6000610d4f610d60565b9050610d5b8282610ead565b919050565b6000604051905090565b600067ffffffffffffffff821115610d8557610d84610f3c565b5b610d8e82610f7f565b9050602081019050919050565b60008190508160005260206000209050919050565b600081519050919050565b600082825260208201905092915050565b6000610dd782610dfd565b9050919050565b60008115159050919050565b6000819050610df88261105a565b919050565b600073ffffffffffffffffffffffffffffffffffffffff82169050919050565b6000819050919050565b6000610e3282610dea565b9050919050565b82818337600083830152505050565b60005b83811015610e66578082015181840152602081019050610e4b565b83811115610e75576000848401525b50505050565b60006002820490506001821680610e9357607f821691505b60208210811415610ea757610ea6610f0d565b5b50919050565b610eb682610f7f565b810181811067ffffffffffffffff82111715610ed557610ed4610f3c565b5b80604052505050565b7f4e487b7100000000000000000000000000000000000000000000000000000000600052602160045260246000fd5b7f4e487b7100000000000000000000000000000000000000000000000000000000600052602260045260246000fd5b7f4e487b7100000000000000000000000000000000000000000000000000000000600052604160045260246000fd5b600080fd5b600080fd5b600080fd5b600080fd5b6000601f19601f8301169050919050565b7f596f7527726520746865204f6e776572203a2900000000000000000000000000600082015250565b7f596f75206861766520746f207061792061626f766520746865206c617374207060008201527f7269636500000000000000000000000000000000000000000000000000000000602082015250565b7f54686520436f6e747261637420697320526561644f6e6c790000000000000000600082015250565b7f4e6f7420546865204f776e6572203a2900000000000000000000000000000000600082015250565b6002811061106b5761106a610ede565b5b5056fea26469706673582212206de2cc0ffb8b48b044f730349459238057bf520ef70efda7ee9aedaa3f0393be64736f6c63430008070033",
  "linkReferences": {},
  "deployedLinkReferences": {}
}