{
  "_format": "hh-sol-artifact-1",
  "contractName": "BestAnimeContract",
  "sourceName": "contracts/BestAnime.sol",
  "abi": [
    {
      "inputs": [
        {
          "internalType": "string",
          "name": "_initAnime",
          "type": "string"
        }
      ],
      "stateMutability": "nonpayable",
      "type": "constructor"
    },
    {
      "anonymous": false,
      "inputs": [
        {
          "indexed": false,
          "internalType": "string",
          "name": "NewBestAnime",
          "type": "string"
        },
        {
          "indexed": false,
          "internalType": "uint256",
          "name": "NewBuyPrice",
          "type": "uint256"
        },
        {
          "indexed": false,
          "internalType": "address",
          "name": "NewOwner",
          "type": "address"
        }
      ],
      "name": "NewBestAnime",
      "type": "event"
    },
    {
      "stateMutability": "payable",
      "type": "fallback"
    },
    {
      "inputs": [],
      "name": "BestAnime",
      "outputs": [
        {
          "internalType": "string",
          "name": "",
          "type": "string"
        }
      ],
      "stateMutability": "view",
      "type": "function"
    },
    {
      "inputs": [],
      "name": "LastBuyPrice",
      "outputs": [
        {
          "internalType": "uint256",
          "name": "",
          "type": "uint256"
        }
      ],
      "stateMutability": "view",
      "type": "function"
    },
    {
      "inputs": [],
      "name": "OwnerOfBestAnime",
      "outputs": [
        {
          "internalType": "address",
          "name": "",
          "type": "address"
        }
      ],
      "stateMutability": "view",
      "type": "function"
    },
    {
      "inputs": [],
      "name": "TheBestAnime",
      "outputs": [
        {
          "internalType": "string",
          "name": "",
          "type": "string"
        },
        {
          "internalType": "uint256",
          "name": "",
          "type": "uint256"
        },
        {
          "internalType": "address",
          "name": "",
          "type": "address"
        }
      ],
      "stateMutability": "view",
      "type": "function"
    },
    {
      "inputs": [],
      "name": "getSCBalance",
      "outputs": [
        {
          "internalType": "uint256",
          "name": "",
          "type": "uint256"
        }
      ],
      "stateMutability": "view",
      "type": "function"
    },
    {
      "inputs": [
        {
          "internalType": "string",
          "name": "_bestanime",
          "type": "string"
        }
      ],
      "name": "setBestAnime",
      "outputs": [],
      "stateMutability": "payable",
      "type": "function"
    },
    {
      "inputs": [],
      "name": "transferBalance",
      "outputs": [],
      "stateMutability": "nonpayable",
      "type": "function"
    },
    {
      "stateMutability": "payable",
      "type": "receive"
    }
  ],
  "bytecode": "0x60806040523480156200001157600080fd5b5060405162000fd738038062000fd7833981810160405281019062000037919062000202565b336000806101000a81548173ffffffffffffffffffffffffffffffffffffffff021916908373ffffffffffffffffffffffffffffffffffffffff16021790555033600260006101000a81548173ffffffffffffffffffffffffffffffffffffffff021916908373ffffffffffffffffffffffffffffffffffffffff1602179055508060019080519060200190620000d0929190620000e0565b50600060038190555050620003b7565b828054620000ee90620002dc565b90600052602060002090601f0160209004810192826200011257600085556200015e565b82601f106200012d57805160ff19168380011785556200015e565b828001600101855582156200015e579182015b828111156200015d57825182559160200191906001019062000140565b5b5090506200016d919062000171565b5090565b5b808211156200018c57600081600090555060010162000172565b5090565b6000620001a7620001a18462000270565b62000247565b905082815260208101848484011115620001c057600080fd5b620001cd848285620002a6565b509392505050565b600082601f830112620001e757600080fd5b8151620001f984826020860162000190565b91505092915050565b6000602082840312156200021557600080fd5b600082015167ffffffffffffffff8111156200023057600080fd5b6200023e84828501620001d5565b91505092915050565b60006200025362000266565b905062000261828262000312565b919050565b6000604051905090565b600067ffffffffffffffff8211156200028e576200028d62000377565b5b6200029982620003a6565b9050602081019050919050565b60005b83811015620002c6578082015181840152602081019050620002a9565b83811115620002d6576000848401525b50505050565b60006002820490506001821680620002f557607f821691505b602082108114156200030c576200030b62000348565b5b50919050565b6200031d82620003a6565b810181811067ffffffffffffffff821117156200033f576200033e62000377565b5b80604052505050565b7f4e487b7100000000000000000000000000000000000000000000000000000000600052602260045260246000fd5b7f4e487b7100000000000000000000000000000000000000000000000000000000600052604160045260246000fd5b6000601f19601f8301169050919050565b610c1080620003c76000396000f3fe6080604052600436106100745760003560e01c806343650b4a1161004e57806343650b4a146100f157806366adeb8c1461011c578063acdc802314610133578063be75ac831461015e5761007b565b8063076654b21461007d5780631ad75357146100aa57806326585600146100c65761007b565b3661007b57005b005b34801561008957600080fd5b50610092610189565b6040516100a19392919061086b565b60405180910390f35b6100c460048036038101906100bf91906106ad565b61024d565b005b3480156100d257600080fd5b506100db6103e2565b6040516100e89190610849565b60405180910390f35b3480156100fd57600080fd5b50610106610470565b604051610113919061082e565b60405180910390f35b34801561012857600080fd5b50610131610496565b005b34801561013f57600080fd5b50610148610594565b6040516101559190610947565b60405180910390f35b34801561016a57600080fd5b5061017361059a565b6040516101809190610947565b60405180910390f35b60606000806001600354600260009054906101000a900473ffffffffffffffffffffffffffffffffffffffff168280546101c290610a67565b80601f01602080910402602001604051908101604052809291908181526020018280546101ee90610a67565b801561023b5780601f106102105761010080835404028352916020019161023b565b820191906000526020600020905b81548152906001019060200180831161021e57829003601f168201915b50505050509250925092509250909192565b60008054906101000a900473ffffffffffffffffffffffffffffffffffffffff1673ffffffffffffffffffffffffffffffffffffffff163373ffffffffffffffffffffffffffffffffffffffff1614156102dc576040517f08c379a00000000000000000000000000000000000000000000000000000000081526004016102d3906108e7565b60405180910390fd5b6003543411610320576040517f08c379a000000000000000000000000000000000000000000000000000000000815260040161031790610907565b60405180910390fd5b3460038190555033600260006101000a81548173ffffffffffffffffffffffffffffffffffffffff021916908373ffffffffffffffffffffffffffffffffffffffff160217905550806001908051906020019061037e9291906105a2565b507f8f7b108963d5e2153336044c033a0d2a92b25f6694c86e98d2647f9784198cef6001600354600260009054906101000a900473ffffffffffffffffffffffffffffffffffffffff166040516103d7939291906108a9565b60405180910390a150565b600180546103ef90610a67565b80601f016020809104026020016040519081016040528092919081815260200182805461041b90610a67565b80156104685780601f1061043d57610100808354040283529160200191610468565b820191906000526020600020905b81548152906001019060200180831161044b57829003601f168201915b505050505081565b600260009054906101000a900473ffffffffffffffffffffffffffffffffffffffff1681565b60008054906101000a900473ffffffffffffffffffffffffffffffffffffffff1673ffffffffffffffffffffffffffffffffffffffff163373ffffffffffffffffffffffffffffffffffffffff1614610524576040517f08c379a000000000000000000000000000000000000000000000000000000000815260040161051b90610927565b60405180910390fd5b60008054906101000a900473ffffffffffffffffffffffffffffffffffffffff1673ffffffffffffffffffffffffffffffffffffffff166108fc61056661059a565b9081150290604051600060405180830381858888f19350505050158015610591573d6000803e3d6000fd5b50565b60035481565b600047905090565b8280546105ae90610a67565b90600052602060002090601f0160209004810192826105d05760008555610617565b82601f106105e957805160ff1916838001178555610617565b82800160010185558215610617579182015b828111156106165782518255916020019190600101906105fb565b5b5090506106249190610628565b5090565b5b80821115610641576000816000905550600101610629565b5090565b600061065861065384610987565b610962565b90508281526020810184848401111561067057600080fd5b61067b848285610a25565b509392505050565b600082601f83011261069457600080fd5b81356106a4848260208601610645565b91505092915050565b6000602082840312156106bf57600080fd5b600082013567ffffffffffffffff8111156106d957600080fd5b6106e584828501610683565b91505092915050565b6106f7816109e9565b82525050565b6000610708826109cd565b61071281856109d8565b9350610722818560208601610a34565b61072b81610b28565b840191505092915050565b6000815461074381610a67565b61074d81866109d8565b94506001821660008114610768576001811461077a576107ad565b60ff19831686526020860193506107ad565b610783856109b8565b60005b838110156107a557815481890152600182019150602081019050610786565b808801955050505b50505092915050565b60006107c36013836109d8565b91506107ce82610b39565b602082019050919050565b60006107e66024836109d8565b91506107f182610b62565b604082019050919050565b60006108096010836109d8565b915061081482610bb1565b602082019050919050565b61082881610a1b565b82525050565b600060208201905061084360008301846106ee565b92915050565b6000602082019050818103600083015261086381846106fd565b905092915050565b6000606082019050818103600083015261088581866106fd565b9050610894602083018561081f565b6108a160408301846106ee565b949350505050565b600060608201905081810360008301526108c38186610736565b90506108d2602083018561081f565b6108df60408301846106ee565b949350505050565b60006020820190508181036000830152610900816107b6565b9050919050565b60006020820190508181036000830152610920816107d9565b9050919050565b60006020820190508181036000830152610940816107fc565b9050919050565b600060208201905061095c600083018461081f565b92915050565b600061096c61097d565b90506109788282610a99565b919050565b6000604051905090565b600067ffffffffffffffff8211156109a2576109a1610af9565b5b6109ab82610b28565b9050602081019050919050565b60008190508160005260206000209050919050565b600081519050919050565b600082825260208201905092915050565b60006109f4826109fb565b9050919050565b600073ffffffffffffffffffffffffffffffffffffffff82169050919050565b6000819050919050565b82818337600083830152505050565b60005b83811015610a52578082015181840152602081019050610a37565b83811115610a61576000848401525b50505050565b60006002820490506001821680610a7f57607f821691505b60208210811415610a9357610a92610aca565b5b50919050565b610aa282610b28565b810181811067ffffffffffffffff82111715610ac157610ac0610af9565b5b80604052505050565b7f4e487b7100000000000000000000000000000000000000000000000000000000600052602260045260246000fd5b7f4e487b7100000000000000000000000000000000000000000000000000000000600052604160045260246000fd5b6000601f19601f8301169050919050565b7f596f7527726520746865204f6e776572203a2900000000000000000000000000600082015250565b7f596f75206861766520746f207061792061626f766520746865206c617374207060008201527f7269636500000000000000000000000000000000000000000000000000000000602082015250565b7f4e6f7420546865204f776e6572203a290000000000000000000000000000000060008201525056fea2646970667358221220740949f08cff75168bb3a536f88fd38f9009b4c7a98f6985300da2b33415a3de64736f6c63430008040033",
  "linkReferences": {},
  "deployedLinkReferences": {}
}